{
  "address": "0xe7f1725E7734CE288F8367e1Bb143E90bb3F0512",
  "abi": [
    {
      "inputs": [],
      "stateMutability": "nonpayable",
      "type": "constructor"
    },
    {
      "anonymous": false,
      "inputs": [
        {
          "indexed": true,
          "internalType": "address",
          "name": "owner",
          "type": "address"
        },
        {
          "indexed": true,
          "internalType": "address",
          "name": "approved",
          "type": "address"
        },
        {
          "indexed": true,
          "internalType": "uint256",
          "name": "tokenId",
          "type": "uint256"
        }
      ],
      "name": "Approval",
      "type": "event"
    },
    {
      "anonymous": false,
      "inputs": [
        {
          "indexed": true,
          "internalType": "address",
          "name": "owner",
          "type": "address"
        },
        {
          "indexed": true,
          "internalType": "address",
          "name": "operator",
          "type": "address"
        },
        {
          "indexed": false,
          "internalType": "bool",
          "name": "approved",
          "type": "bool"
        }
      ],
      "name": "ApprovalForAll",
      "type": "event"
    },
    {
      "anonymous": false,
      "inputs": [
        {
          "indexed": false,
          "internalType": "uint256",
          "name": "tokenId",
          "type": "uint256"
        },
        {
          "indexed": false,
          "internalType": "address",
          "name": "owner",
          "type": "address"
        }
      ],
      "name": "MintedTestToken",
      "type": "event"
    },
    {
      "anonymous": false,
      "inputs": [
        {
          "indexed": true,
          "internalType": "address",
          "name": "from",
          "type": "address"
        },
        {
          "indexed": true,
          "internalType": "address",
          "name": "to",
          "type": "address"
        },
        {
          "indexed": true,
          "internalType": "uint256",
          "name": "tokenId",
          "type": "uint256"
        }
      ],
      "name": "Transfer",
      "type": "event"
    },
    {
      "inputs": [],
      "name": "TOKEN_URI",
      "outputs": [
        {
          "internalType": "string",
          "name": "",
          "type": "string"
        }
      ],
      "stateMutability": "view",
      "type": "function"
    },
    {
      "inputs": [
        {
          "internalType": "address",
          "name": "to",
          "type": "address"
        },
        {
          "internalType": "uint256",
          "name": "tokenId",
          "type": "uint256"
        }
      ],
      "name": "approve",
      "outputs": [],
      "stateMutability": "nonpayable",
      "type": "function"
    },
    {
      "inputs": [
        {
          "internalType": "address",
          "name": "owner",
          "type": "address"
        }
      ],
      "name": "balanceOf",
      "outputs": [
        {
          "internalType": "uint256",
          "name": "",
          "type": "uint256"
        }
      ],
      "stateMutability": "view",
      "type": "function"
    },
    {
      "inputs": [],
      "name": "faucet",
      "outputs": [],
      "stateMutability": "nonpayable",
      "type": "function"
    },
    {
      "inputs": [
        {
          "internalType": "uint256",
          "name": "tokenId",
          "type": "uint256"
        }
      ],
      "name": "getApproved",
      "outputs": [
        {
          "internalType": "address",
          "name": "",
          "type": "address"
        }
      ],
      "stateMutability": "view",
      "type": "function"
    },
    {
      "inputs": [],
      "name": "getTokenCounter",
      "outputs": [
        {
          "internalType": "uint256",
          "name": "",
          "type": "uint256"
        }
      ],
      "stateMutability": "view",
      "type": "function"
    },
    {
      "inputs": [
        {
          "internalType": "address",
          "name": "owner",
          "type": "address"
        },
        {
          "internalType": "address",
          "name": "operator",
          "type": "address"
        }
      ],
      "name": "isApprovedForAll",
      "outputs": [
        {
          "internalType": "bool",
          "name": "",
          "type": "bool"
        }
      ],
      "stateMutability": "view",
      "type": "function"
    },
    {
      "inputs": [],
      "name": "name",
      "outputs": [
        {
          "internalType": "string",
          "name": "",
          "type": "string"
        }
      ],
      "stateMutability": "view",
      "type": "function"
    },
    {
      "inputs": [
        {
          "internalType": "uint256",
          "name": "tokenId",
          "type": "uint256"
        }
      ],
      "name": "ownerOf",
      "outputs": [
        {
          "internalType": "address",
          "name": "",
          "type": "address"
        }
      ],
      "stateMutability": "view",
      "type": "function"
    },
    {
      "inputs": [
        {
          "internalType": "address",
          "name": "from",
          "type": "address"
        },
        {
          "internalType": "address",
          "name": "to",
          "type": "address"
        },
        {
          "internalType": "uint256",
          "name": "tokenId",
          "type": "uint256"
        }
      ],
      "name": "safeTransferFrom",
      "outputs": [],
      "stateMutability": "nonpayable",
      "type": "function"
    },
    {
      "inputs": [
        {
          "internalType": "address",
          "name": "from",
          "type": "address"
        },
        {
          "internalType": "address",
          "name": "to",
          "type": "address"
        },
        {
          "internalType": "uint256",
          "name": "tokenId",
          "type": "uint256"
        },
        {
          "internalType": "bytes",
          "name": "_data",
          "type": "bytes"
        }
      ],
      "name": "safeTransferFrom",
      "outputs": [],
      "stateMutability": "nonpayable",
      "type": "function"
    },
    {
      "inputs": [
        {
          "internalType": "address",
          "name": "operator",
          "type": "address"
        },
        {
          "internalType": "bool",
          "name": "approved",
          "type": "bool"
        }
      ],
      "name": "setApprovalForAll",
      "outputs": [],
      "stateMutability": "nonpayable",
      "type": "function"
    },
    {
      "inputs": [
        {
          "internalType": "bytes4",
          "name": "interfaceId",
          "type": "bytes4"
        }
      ],
      "name": "supportsInterface",
      "outputs": [
        {
          "internalType": "bool",
          "name": "",
          "type": "bool"
        }
      ],
      "stateMutability": "view",
      "type": "function"
    },
    {
      "inputs": [],
      "name": "symbol",
      "outputs": [
        {
          "internalType": "string",
          "name": "",
          "type": "string"
        }
      ],
      "stateMutability": "view",
      "type": "function"
    },
    {
      "inputs": [
        {
          "internalType": "uint256",
          "name": "_tokenId",
          "type": "uint256"
        }
      ],
      "name": "tokenURI",
      "outputs": [
        {
          "internalType": "string",
          "name": "",
          "type": "string"
        }
      ],
      "stateMutability": "view",
      "type": "function"
    },
    {
      "inputs": [
        {
          "internalType": "address",
          "name": "from",
          "type": "address"
        },
        {
          "internalType": "address",
          "name": "to",
          "type": "address"
        },
        {
          "internalType": "uint256",
          "name": "tokenId",
          "type": "uint256"
        }
      ],
      "name": "transferFrom",
      "outputs": [],
      "stateMutability": "nonpayable",
      "type": "function"
    }
  ],
  "transactionHash": "0x6e594057796f0911fa93e2e38fb0d6b9f57cdbdcbb31c25f9a1e3a7d54055dcc",
  "args": [],
  "numDeployments": 1,
  "solcInputHash": "03e5feb8ca83b766ef4c3d0be9308340",
  "bytecode": "0x60806040523480156200001157600080fd5b506040518060400160405280600781526020017f546573744e4654000000000000000000000000000000000000000000000000008152506040518060400160405280600481526020017f544e465400000000000000000000000000000000000000000000000000000000815250816000908051906020019062000096929190620000b8565b508060019080519060200190620000af929190620000b8565b505050620001cd565b828054620000c69062000168565b90600052602060002090601f016020900481019282620000ea576000855562000136565b82601f106200010557805160ff191683800117855562000136565b8280016001018555821562000136579182015b828111156200013557825182559160200191906001019062000118565b5b50905062000145919062000149565b5090565b5b80821115620001645760008160009055506001016200014a565b5090565b600060028204905060018216806200018157607f821691505b602082108114156200019857620001976200019e565b5b50919050565b7f4e487b7100000000000000000000000000000000000000000000000000000000600052602260045260246000fd5b61255980620001dd6000396000f3fe608060405234801561001057600080fd5b50600436106101005760003560e01c806370a0823111610097578063b88d4fde11610066578063b88d4fde146102ad578063c87b56dd146102c9578063de5f72fd146102f9578063e985e9c51461030357610100565b806370a082311461022557806378ce90351461025557806395d89b4114610273578063a22cb4651461029157610100565b806323b872dd116100d357806323b872dd1461019f57806342842e0e146101bb5780636352211e146101d75780636e02007d1461020757610100565b806301ffc9a71461010557806306fdde0314610135578063081812fc14610153578063095ea7b314610183575b600080fd5b61011f600480360381019061011a9190611817565b610333565b60405161012c9190611b8e565b60405180910390f35b61013d610415565b60405161014a9190611ba9565b60405180910390f35b61016d60048036038101906101689190611871565b6104a7565b60405161017a9190611b27565b60405180910390f35b61019d600480360381019061019891906117d7565b61052c565b005b6101b960048036038101906101b491906116c1565b610644565b005b6101d560048036038101906101d091906116c1565b6106a4565b005b6101f160048036038101906101ec9190611871565b6106c4565b6040516101fe9190611b27565b60405180910390f35b61020f610776565b60405161021c9190611d8b565b60405180910390f35b61023f600480360381019061023a9190611654565b610780565b60405161024c9190611d8b565b60405180910390f35b61025d610838565b60405161026a9190611ba9565b60405180910390f35b61027b610854565b6040516102889190611ba9565b60405180910390f35b6102ab60048036038101906102a69190611797565b6108e6565b005b6102c760048036038101906102c29190611714565b6108fc565b005b6102e360048036038101906102de9190611871565b61095e565b6040516102f09190611ba9565b60405180910390f35b6103016109c8565b005b61031d60048036038101906103189190611681565b610a2b565b60405161032a9190611b8e565b60405180910390f35b60007f80ac58cd000000000000000000000000000000000000000000000000000000007bffffffffffffffffffffffffffffffffffffffffffffffffffffffff1916827bffffffffffffffffffffffffffffffffffffffffffffffffffffffff191614806103fe57507f5b5e139f000000000000000000000000000000000000000000000000000000007bffffffffffffffffffffffffffffffffffffffffffffffffffffffff1916827bffffffffffffffffffffffffffffffffffffffffffffffffffffffff1916145b8061040e575061040d82610abf565b5b9050919050565b60606000805461042490611f9d565b80601f016020809104026020016040519081016040528092919081815260200182805461045090611f9d565b801561049d5780601f106104725761010080835404028352916020019161049d565b820191906000526020600020905b81548152906001019060200180831161048057829003601f168201915b5050505050905090565b60006104b282610b29565b6104f1576040517f08c379a00000000000000000000000000000000000000000000000000000000081526004016104e890611d0b565b60405180910390fd5b6004600083815260200190815260200160002060009054906101000a900473ffffffffffffffffffffffffffffffffffffffff169050919050565b6000610537826106c4565b90508073ffffffffffffffffffffffffffffffffffffffff168373ffffffffffffffffffffffffffffffffffffffff1614156105a8576040517f08c379a000000000000000000000000000000000000000000000000000000000815260040161059f90611d4b565b60405180910390fd5b8073ffffffffffffffffffffffffffffffffffffffff166105c7610b95565b73ffffffffffffffffffffffffffffffffffffffff1614806105f657506105f5816105f0610b95565b610a2b565b5b610635576040517f08c379a000000000000000000000000000000000000000000000000000000000815260040161062c90611c8b565b60405180910390fd5b61063f8383610b9d565b505050565b61065561064f610b95565b82610c56565b610694576040517f08c379a000000000000000000000000000000000000000000000000000000000815260040161068b90611d6b565b60405180910390fd5b61069f838383610d34565b505050565b6106bf838383604051806020016040528060008152506108fc565b505050565b6000806002600084815260200190815260200160002060009054906101000a900473ffffffffffffffffffffffffffffffffffffffff169050600073ffffffffffffffffffffffffffffffffffffffff168173ffffffffffffffffffffffffffffffffffffffff16141561076d576040517f08c379a000000000000000000000000000000000000000000000000000000000815260040161076490611ccb565b60405180910390fd5b80915050919050565b6000600654905090565b60008073ffffffffffffffffffffffffffffffffffffffff168273ffffffffffffffffffffffffffffffffffffffff1614156107f1576040517f08c379a00000000000000000000000000000000000000000000000000000000081526004016107e890611cab565b60405180910390fd5b600360008373ffffffffffffffffffffffffffffffffffffffff1673ffffffffffffffffffffffffffffffffffffffff168152602001908152602001600020549050919050565b6040518060600160405280603581526020016124ef6035913981565b60606001805461086390611f9d565b80601f016020809104026020016040519081016040528092919081815260200182805461088f90611f9d565b80156108dc5780601f106108b1576101008083540402835291602001916108dc565b820191906000526020600020905b8154815290600101906020018083116108bf57829003601f168201915b5050505050905090565b6108f86108f1610b95565b8383610f9b565b5050565b61090d610907610b95565b83610c56565b61094c576040517f08c379a000000000000000000000000000000000000000000000000000000000815260040161094390611d6b565b60405180910390fd5b61095884848484611108565b50505050565b606061096982610b29565b6109a8576040517f08c379a000000000000000000000000000000000000000000000000000000000815260040161099f90611d2b565b60405180910390fd5b6040518060600160405280603581526020016124ef603591399050919050565b6109d433600654611164565b7f7e69b852a7757495672c84f2de812e4c347f7e202a209a6ded7356b272a73a6c60065433604051610a07929190611da6565b60405180910390a1600160066000828254610a229190611e5d565b92505081905550565b6000600560008473ffffffffffffffffffffffffffffffffffffffff1673ffffffffffffffffffffffffffffffffffffffff16815260200190815260200160002060008373ffffffffffffffffffffffffffffffffffffffff1673ffffffffffffffffffffffffffffffffffffffff16815260200190815260200160002060009054906101000a900460ff16905092915050565b60007f01ffc9a7000000000000000000000000000000000000000000000000000000007bffffffffffffffffffffffffffffffffffffffffffffffffffffffff1916827bffffffffffffffffffffffffffffffffffffffffffffffffffffffff1916149050919050565b60008073ffffffffffffffffffffffffffffffffffffffff166002600084815260200190815260200160002060009054906101000a900473ffffffffffffffffffffffffffffffffffffffff1673ffffffffffffffffffffffffffffffffffffffff1614159050919050565b600033905090565b816004600083815260200190815260200160002060006101000a81548173ffffffffffffffffffffffffffffffffffffffff021916908373ffffffffffffffffffffffffffffffffffffffff160217905550808273ffffffffffffffffffffffffffffffffffffffff16610c10836106c4565b73ffffffffffffffffffffffffffffffffffffffff167f8c5be1e5ebec7d5bd14f71427d1e84f3dd0314c0f7b2291e5b200ac8c7c3b92560405160405180910390a45050565b6000610c6182610b29565b610ca0576040517f08c379a0000000000000000000000000000000000000000000000000000000008152600401610c9790611c6b565b60405180910390fd5b6000610cab836106c4565b90508073ffffffffffffffffffffffffffffffffffffffff168473ffffffffffffffffffffffffffffffffffffffff161480610ced5750610cec8185610a2b565b5b80610d2b57508373ffffffffffffffffffffffffffffffffffffffff16610d13846104a7565b73ffffffffffffffffffffffffffffffffffffffff16145b91505092915050565b8273ffffffffffffffffffffffffffffffffffffffff16610d54826106c4565b73ffffffffffffffffffffffffffffffffffffffff1614610daa576040517f08c379a0000000000000000000000000000000000000000000000000000000008152600401610da190611beb565b60405180910390fd5b600073ffffffffffffffffffffffffffffffffffffffff168273ffffffffffffffffffffffffffffffffffffffff161415610e1a576040517f08c379a0000000000000000000000000000000000000000000000000000000008152600401610e1190611c2b565b60405180910390fd5b610e25838383611182565b610e30600082610b9d565b6001600360008573ffffffffffffffffffffffffffffffffffffffff1673ffffffffffffffffffffffffffffffffffffffff1681526020019081526020016000206000828254610e809190611eb3565b925050819055506001600360008473ffffffffffffffffffffffffffffffffffffffff1673ffffffffffffffffffffffffffffffffffffffff1681526020019081526020016000206000828254610ed79190611e5d565b92505081905550816002600083815260200190815260200160002060006101000a81548173ffffffffffffffffffffffffffffffffffffffff021916908373ffffffffffffffffffffffffffffffffffffffff160217905550808273ffffffffffffffffffffffffffffffffffffffff168473ffffffffffffffffffffffffffffffffffffffff167fddf252ad1be2c89b69c2b068fc378daa952ba7f163c4a11628f55a4df523b3ef60405160405180910390a4610f96838383611187565b505050565b8173ffffffffffffffffffffffffffffffffffffffff168373ffffffffffffffffffffffffffffffffffffffff16141561100a576040517f08c379a000000000000000000000000000000000000000000000000000000000815260040161100190611c4b565b60405180910390fd5b80600560008573ffffffffffffffffffffffffffffffffffffffff1673ffffffffffffffffffffffffffffffffffffffff16815260200190815260200160002060008473ffffffffffffffffffffffffffffffffffffffff1673ffffffffffffffffffffffffffffffffffffffff16815260200190815260200160002060006101000a81548160ff0219169083151502179055508173ffffffffffffffffffffffffffffffffffffffff168373ffffffffffffffffffffffffffffffffffffffff167f17307eab39ab6107e8899845ad3d59bd9653f200f220920489ca2b5937696c31836040516110fb9190611b8e565b60405180910390a3505050565b611113848484610d34565b61111f8484848461118c565b61115e576040517f08c379a000000000000000000000000000000000000000000000000000000000815260040161115590611bcb565b60405180910390fd5b50505050565b61117e828260405180602001604052806000815250611323565b5050565b505050565b505050565b60006111ad8473ffffffffffffffffffffffffffffffffffffffff1661137e565b15611316578373ffffffffffffffffffffffffffffffffffffffff1663150b7a026111d6610b95565b8786866040518563ffffffff1660e01b81526004016111f89493929190611b42565b602060405180830381600087803b15801561121257600080fd5b505af192505050801561124357506040513d601f19601f820116820180604052508101906112409190611844565b60015b6112c6573d8060008114611273576040519150601f19603f3d011682016040523d82523d6000602084013e611278565b606091505b506000815114156112be576040517f08c379a00000000000000000000000000000000000000000000000000000000081526004016112b590611bcb565b60405180910390fd5b805181602001fd5b63150b7a0260e01b7bffffffffffffffffffffffffffffffffffffffffffffffffffffffff1916817bffffffffffffffffffffffffffffffffffffffffffffffffffffffff19161491505061131b565b600190505b949350505050565b61132d83836113a1565b61133a600084848461118c565b611379576040517f08c379a000000000000000000000000000000000000000000000000000000000815260040161137090611bcb565b60405180910390fd5b505050565b6000808273ffffffffffffffffffffffffffffffffffffffff163b119050919050565b600073ffffffffffffffffffffffffffffffffffffffff168273ffffffffffffffffffffffffffffffffffffffff161415611411576040517f08c379a000000000000000000000000000000000000000000000000000000000815260040161140890611ceb565b60405180910390fd5b61141a81610b29565b1561145a576040517f08c379a000000000000000000000000000000000000000000000000000000000815260040161145190611c0b565b60405180910390fd5b61146660008383611182565b6001600360008473ffffffffffffffffffffffffffffffffffffffff1673ffffffffffffffffffffffffffffffffffffffff16815260200190815260200160002060008282546114b69190611e5d565b92505081905550816002600083815260200190815260200160002060006101000a81548173ffffffffffffffffffffffffffffffffffffffff021916908373ffffffffffffffffffffffffffffffffffffffff160217905550808273ffffffffffffffffffffffffffffffffffffffff16600073ffffffffffffffffffffffffffffffffffffffff167fddf252ad1be2c89b69c2b068fc378daa952ba7f163c4a11628f55a4df523b3ef60405160405180910390a461157760008383611187565b5050565b600061158e61158984611df4565b611dcf565b9050828152602081018484840111156115aa576115a9612092565b5b6115b5848285611f5b565b509392505050565b6000813590506115cc81612492565b92915050565b6000813590506115e1816124a9565b92915050565b6000813590506115f6816124c0565b92915050565b60008151905061160b816124c0565b92915050565b600082601f8301126116265761162561208d565b5b813561163684826020860161157b565b91505092915050565b60008135905061164e816124d7565b92915050565b60006020828403121561166a5761166961209c565b5b6000611678848285016115bd565b91505092915050565b600080604083850312156116985761169761209c565b5b60006116a6858286016115bd565b92505060206116b7858286016115bd565b9150509250929050565b6000806000606084860312156116da576116d961209c565b5b60006116e8868287016115bd565b93505060206116f9868287016115bd565b925050604061170a8682870161163f565b9150509250925092565b6000806000806080858703121561172e5761172d61209c565b5b600061173c878288016115bd565b945050602061174d878288016115bd565b935050604061175e8782880161163f565b925050606085013567ffffffffffffffff81111561177f5761177e612097565b5b61178b87828801611611565b91505092959194509250565b600080604083850312156117ae576117ad61209c565b5b60006117bc858286016115bd565b92505060206117cd858286016115d2565b9150509250929050565b600080604083850312156117ee576117ed61209c565b5b60006117fc858286016115bd565b925050602061180d8582860161163f565b9150509250929050565b60006020828403121561182d5761182c61209c565b5b600061183b848285016115e7565b91505092915050565b60006020828403121561185a5761185961209c565b5b6000611868848285016115fc565b91505092915050565b6000602082840312156118875761188661209c565b5b60006118958482850161163f565b91505092915050565b6118a781611ee7565b82525050565b6118b681611ef9565b82525050565b60006118c782611e25565b6118d18185611e3b565b93506118e1818560208601611f6a565b6118ea816120a1565b840191505092915050565b600061190082611e30565b61190a8185611e4c565b935061191a818560208601611f6a565b611923816120a1565b840191505092915050565b600061193b603283611e4c565b9150611946826120b2565b604082019050919050565b600061195e602583611e4c565b915061196982612101565b604082019050919050565b6000611981601c83611e4c565b915061198c82612150565b602082019050919050565b60006119a4602483611e4c565b91506119af82612179565b604082019050919050565b60006119c7601983611e4c565b91506119d2826121c8565b602082019050919050565b60006119ea602c83611e4c565b91506119f5826121f1565b604082019050919050565b6000611a0d603883611e4c565b9150611a1882612240565b604082019050919050565b6000611a30602a83611e4c565b9150611a3b8261228f565b604082019050919050565b6000611a53602983611e4c565b9150611a5e826122de565b604082019050919050565b6000611a76602083611e4c565b9150611a818261232d565b602082019050919050565b6000611a99602c83611e4c565b9150611aa482612356565b604082019050919050565b6000611abc602f83611e4c565b9150611ac7826123a5565b604082019050919050565b6000611adf602183611e4c565b9150611aea826123f4565b604082019050919050565b6000611b02603183611e4c565b9150611b0d82612443565b604082019050919050565b611b2181611f51565b82525050565b6000602082019050611b3c600083018461189e565b92915050565b6000608082019050611b57600083018761189e565b611b64602083018661189e565b611b716040830185611b18565b8181036060830152611b8381846118bc565b905095945050505050565b6000602082019050611ba360008301846118ad565b92915050565b60006020820190508181036000830152611bc381846118f5565b905092915050565b60006020820190508181036000830152611be48161192e565b9050919050565b60006020820190508181036000830152611c0481611951565b9050919050565b60006020820190508181036000830152611c2481611974565b9050919050565b60006020820190508181036000830152611c4481611997565b9050919050565b60006020820190508181036000830152611c64816119ba565b9050919050565b60006020820190508181036000830152611c84816119dd565b9050919050565b60006020820190508181036000830152611ca481611a00565b9050919050565b60006020820190508181036000830152611cc481611a23565b9050919050565b60006020820190508181036000830152611ce481611a46565b9050919050565b60006020820190508181036000830152611d0481611a69565b9050919050565b60006020820190508181036000830152611d2481611a8c565b9050919050565b60006020820190508181036000830152611d4481611aaf565b9050919050565b60006020820190508181036000830152611d6481611ad2565b9050919050565b60006020820190508181036000830152611d8481611af5565b9050919050565b6000602082019050611da06000830184611b18565b92915050565b6000604082019050611dbb6000830185611b18565b611dc8602083018461189e565b9392505050565b6000611dd9611dea565b9050611de58282611fcf565b919050565b6000604051905090565b600067ffffffffffffffff821115611e0f57611e0e61205e565b5b611e18826120a1565b9050602081019050919050565b600081519050919050565b600081519050919050565b600082825260208201905092915050565b600082825260208201905092915050565b6000611e6882611f51565b9150611e7383611f51565b9250827fffffffffffffffffffffffffffffffffffffffffffffffffffffffffffffffff03821115611ea857611ea7612000565b5b828201905092915050565b6000611ebe82611f51565b9150611ec983611f51565b925082821015611edc57611edb612000565b5b828203905092915050565b6000611ef282611f31565b9050919050565b60008115159050919050565b60007fffffffff0000000000000000000000000000000000000000000000000000000082169050919050565b600073ffffffffffffffffffffffffffffffffffffffff82169050919050565b6000819050919050565b82818337600083830152505050565b60005b83811015611f88578082015181840152602081019050611f6d565b83811115611f97576000848401525b50505050565b60006002820490506001821680611fb557607f821691505b60208210811415611fc957611fc861202f565b5b50919050565b611fd8826120a1565b810181811067ffffffffffffffff82111715611ff757611ff661205e565b5b80604052505050565b7f4e487b7100000000000000000000000000000000000000000000000000000000600052601160045260246000fd5b7f4e487b7100000000000000000000000000000000000000000000000000000000600052602260045260246000fd5b7f4e487b7100000000000000000000000000000000000000000000000000000000600052604160045260246000fd5b600080fd5b600080fd5b600080fd5b600080fd5b6000601f19601f8301169050919050565b7f4552433732313a207472616e7366657220746f206e6f6e20455243373231526560008201527f63656976657220696d706c656d656e7465720000000000000000000000000000602082015250565b7f4552433732313a207472616e736665722066726f6d20696e636f72726563742060008201527f6f776e6572000000000000000000000000000000000000000000000000000000602082015250565b7f4552433732313a20746f6b656e20616c7265616479206d696e74656400000000600082015250565b7f4552433732313a207472616e7366657220746f20746865207a65726f2061646460008201527f7265737300000000000000000000000000000000000000000000000000000000602082015250565b7f4552433732313a20617070726f766520746f2063616c6c657200000000000000600082015250565b7f4552433732313a206f70657261746f7220717565727920666f72206e6f6e657860008201527f697374656e7420746f6b656e0000000000000000000000000000000000000000602082015250565b7f4552433732313a20617070726f76652063616c6c6572206973206e6f74206f7760008201527f6e6572206e6f7220617070726f76656420666f7220616c6c0000000000000000602082015250565b7f4552433732313a2062616c616e636520717565727920666f7220746865207a6560008201527f726f206164647265737300000000000000000000000000000000000000000000602082015250565b7f4552433732313a206f776e657220717565727920666f72206e6f6e657869737460008201527f656e7420746f6b656e0000000000000000000000000000000000000000000000602082015250565b7f4552433732313a206d696e7420746f20746865207a65726f2061646472657373600082015250565b7f4552433732313a20617070726f76656420717565727920666f72206e6f6e657860008201527f697374656e7420746f6b656e0000000000000000000000000000000000000000602082015250565b7f4552433732314d657461646174613a2055524920717565727920666f72206e6f60008201527f6e6578697374656e7420746f6b656e0000000000000000000000000000000000602082015250565b7f4552433732313a20617070726f76616c20746f2063757272656e74206f776e6560008201527f7200000000000000000000000000000000000000000000000000000000000000602082015250565b7f4552433732313a207472616e736665722063616c6c6572206973206e6f74206f60008201527f776e6572206e6f7220617070726f766564000000000000000000000000000000602082015250565b61249b81611ee7565b81146124a657600080fd5b50565b6124b281611ef9565b81146124bd57600080fd5b50565b6124c981611f05565b81146124d457600080fd5b50565b6124e081611f51565b81146124eb57600080fd5b5056fe697066733a2f2f516d6472796f4578706745515151674a506f727577474a795a6d7a3653715634465254583169373343543369586ea2646970667358221220ef9fec6a5b9731f7712943f30680ad25c9a199bbe4c5c12c0469346b5cb8fb6064736f6c63430008070033",
  "devdoc": {
    "kind": "dev",
    "methods": {
      "approve(address,uint256)": {
        "details": "See {IERC721-approve}."
      },
      "balanceOf(address)": {
        "details": "See {IERC721-balanceOf}."
      },
      "getApproved(uint256)": {
        "details": "See {IERC721-getApproved}."
      },
      "isApprovedForAll(address,address)": {
        "details": "See {IERC721-isApprovedForAll}."
      },
      "name()": {
        "details": "See {IERC721Metadata-name}."
      },
      "ownerOf(uint256)": {
        "details": "See {IERC721-ownerOf}."
      },
      "safeTransferFrom(address,address,uint256)": {
        "details": "See {IERC721-safeTransferFrom}."
      },
      "safeTransferFrom(address,address,uint256,bytes)": {
        "details": "See {IERC721-safeTransferFrom}."
      },
      "setApprovalForAll(address,bool)": {
        "details": "See {IERC721-setApprovalForAll}."
      },
      "supportsInterface(bytes4)": {
        "details": "See {IERC165-supportsInterface}."
      },
      "symbol()": {
        "details": "See {IERC721Metadata-symbol}."
      },
      "transferFrom(address,address,uint256)": {
        "details": "See {IERC721-transferFrom}."
      }
    },
    "stateVariables": {
      "TOKEN_URI": {
        "details": "Hardcoded since this is just a test contract."
      }
    },
    "version": 1
  },
  "userdoc": {
    "kind": "user",
    "methods": {},
    "version": 1
  },
  "storageLayout": {
    "storage": [
      {
        "astId": 757,
        "contract": "contracts/test/TestNFT.sol:TestNFT",
        "label": "_name",
        "offset": 0,
        "slot": "0",
        "type": "t_string_storage"
      },
      {
        "astId": 759,
        "contract": "contracts/test/TestNFT.sol:TestNFT",
        "label": "_symbol",
        "offset": 0,
        "slot": "1",
        "type": "t_string_storage"
      },
      {
        "astId": 763,
        "contract": "contracts/test/TestNFT.sol:TestNFT",
        "label": "_owners",
        "offset": 0,
        "slot": "2",
        "type": "t_mapping(t_uint256,t_address)"
      },
      {
        "astId": 767,
        "contract": "contracts/test/TestNFT.sol:TestNFT",
        "label": "_balances",
        "offset": 0,
        "slot": "3",
        "type": "t_mapping(t_address,t_uint256)"
      },
      {
        "astId": 771,
        "contract": "contracts/test/TestNFT.sol:TestNFT",
        "label": "_tokenApprovals",
        "offset": 0,
        "slot": "4",
        "type": "t_mapping(t_uint256,t_address)"
      },
      {
        "astId": 777,
        "contract": "contracts/test/TestNFT.sol:TestNFT",
        "label": "_operatorApprovals",
        "offset": 0,
        "slot": "5",
        "type": "t_mapping(t_address,t_mapping(t_address,t_bool))"
      },
      {
        "astId": 3021,
        "contract": "contracts/test/TestNFT.sol:TestNFT",
        "label": "tokenCounter",
        "offset": 0,
        "slot": "6",
        "type": "t_uint256"
      }
    ],
    "types": {
      "t_address": {
        "encoding": "inplace",
        "label": "address",
        "numberOfBytes": "20"
      },
      "t_bool": {
        "encoding": "inplace",
        "label": "bool",
        "numberOfBytes": "1"
      },
      "t_mapping(t_address,t_bool)": {
        "encoding": "mapping",
        "key": "t_address",
        "label": "mapping(address => bool)",
        "numberOfBytes": "32",
        "value": "t_bool"
      },
      "t_mapping(t_address,t_mapping(t_address,t_bool))": {
        "encoding": "mapping",
        "key": "t_address",
        "label": "mapping(address => mapping(address => bool))",
        "numberOfBytes": "32",
        "value": "t_mapping(t_address,t_bool)"
      },
      "t_mapping(t_address,t_uint256)": {
        "encoding": "mapping",
        "key": "t_address",
        "label": "mapping(address => uint256)",
        "numberOfBytes": "32",
        "value": "t_uint256"
      },
      "t_mapping(t_uint256,t_address)": {
        "encoding": "mapping",
        "key": "t_uint256",
        "label": "mapping(uint256 => address)",
        "numberOfBytes": "32",
        "value": "t_address"
      },
      "t_string_storage": {
        "encoding": "bytes",
        "label": "string",
        "numberOfBytes": "32"
      },
      "t_uint256": {
        "encoding": "inplace",
        "label": "uint256",
        "numberOfBytes": "32"
      }
    }
  }
}