{
  "address": "0xCf7Ed3AccA5a467e9e704C703E8D87F634fB0Fc9",
  "abi": [
    {
      "anonymous": false,
      "inputs": [
        {
          "indexed": false,
          "internalType": "uint256",
          "name": "newValue",
          "type": "uint256"
        }
      ],
      "name": "ChangedValue",
      "type": "event"
    },
    {
      "inputs": [],
      "name": "getValue",
      "outputs": [
        {
          "internalType": "uint256",
          "name": "",
          "type": "uint256"
        }
      ],
      "stateMutability": "view",
      "type": "function"
    },
    {
      "inputs": [],
      "name": "getVersion",
      "outputs": [
        {
          "internalType": "uint256",
          "name": "",
          "type": "uint256"
        }
      ],
      "stateMutability": "pure",
      "type": "function"
    },
    {
      "inputs": [],
      "name": "increment",
      "outputs": [],
      "stateMutability": "nonpayable",
      "type": "function"
    },
    {
      "inputs": [
        {
          "internalType": "uint256",
          "name": "_value",
          "type": "uint256"
        }
      ],
      "name": "store",
      "outputs": [],
      "stateMutability": "nonpayable",
      "type": "function"
    }
  ],
  "transactionHash": "0xd6506a770b60b9ce227603de501769fb8ec670d9c986d3c6e3a842cc6bbefce9",
  "args": [],
  "numDeployments": 1,
  "solcInputHash": "ffa55049b4c76767ab331932bd036b26",
  "bytecode": "0x608060405234801561001057600080fd5b506102a9806100206000396000f3fe608060405234801561001057600080fd5b506004361061004c5760003560e01c80630d8e6e2c14610051578063209652551461006f5780636057361d1461008d578063d09de08a146100a9575b600080fd5b6100596100b3565b60405161006691906101ad565b60405180910390f35b6100776100bc565b60405161008491906101ad565b60405180910390f35b6100a760048036038101906100a29190610171565b6100c5565b005b6100b1610108565b005b60006002905090565b60008054905090565b806000819055507f199cd93e851e4c78c437891155e2112093f8f15394aa89dab09e38d6ca0727876000546040516100fd91906101ad565b60405180910390a150565b600160008082825461011a91906101c8565b925050819055507f199cd93e851e4c78c437891155e2112093f8f15394aa89dab09e38d6ca07278760005460405161015291906101ad565b60405180910390a1565b60008135905061016b8161025c565b92915050565b60006020828403121561018757610186610257565b5b60006101958482850161015c565b91505092915050565b6101a78161021e565b82525050565b60006020820190506101c2600083018461019e565b92915050565b60006101d38261021e565b91506101de8361021e565b9250827fffffffffffffffffffffffffffffffffffffffffffffffffffffffffffffffff0382111561021357610212610228565b5b828201905092915050565b6000819050919050565b7f4e487b7100000000000000000000000000000000000000000000000000000000600052601160045260246000fd5b600080fd5b6102658161021e565b811461027057600080fd5b5056fea2646970667358221220991855c9f487b0e61b7d561787bb062a82b0050cb07b6232aa9fbabbfca2ac5764736f6c63430008070033",
  "devdoc": {
    "kind": "dev",
    "methods": {},
    "version": 1
  },
  "userdoc": {
    "kind": "user",
    "methods": {},
    "version": 1
  },
  "storageLayout": {
    "storage": [
      {
        "astId": 1273,
        "contract": "contracts/BoxV2.sol:BoxV2",
        "label": "value",
        "offset": 0,
        "slot": "0",
        "type": "t_uint256"
      }
    ],
    "types": {
      "t_uint256": {
        "encoding": "inplace",
        "label": "uint256",
        "numberOfBytes": "32"
      }
    }
  }
}