{
  "address": "0xb689A6670c17d31ce42fd0b370fB009873eeb789",
  "abi": [
    {
      "inputs": [
        {
          "internalType": "address",
          "name": "nft",
          "type": "address"
        },
        {
          "internalType": "uint256",
          "name": "tokenId",
          "type": "uint256"
        }
      ],
      "name": "AlreadyListed",
      "type": "error"
    },
    {
      "inputs": [
        {
          "internalType": "uint256",
          "name": "price",
          "type": "uint256"
        }
      ],
      "name": "InvalidAmountPayed",
      "type": "error"
    },
    {
      "inputs": [],
      "name": "NoProceedsToClaim",
      "type": "error"
    },
    {
      "inputs": [
        {
          "internalType": "address",
          "name": "nft",
          "type": "address"
        },
        {
          "internalType": "uint256",
          "name": "tokenId",
          "type": "uint256"
        }
      ],
      "name": "NotApproved",
      "type": "error"
    },
    {
      "inputs": [],
      "name": "NotEnoughBalance",
      "type": "error"
    },
    {
      "inputs": [],
      "name": "NotEnoughContractBalance",
      "type": "error"
    },
    {
      "inputs": [
        {
          "internalType": "address",
          "name": "nft",
          "type": "address"
        },
        {
          "internalType": "uint256",
          "name": "tokenId",
          "type": "uint256"
        }
      ],
      "name": "NotListed",
      "type": "error"
    },
    {
      "inputs": [
        {
          "internalType": "address",
          "name": "nft",
          "type": "address"
        },
        {
          "internalType": "uint256",
          "name": "tokenId",
          "type": "uint256"
        }
      ],
      "name": "NotOwner",
      "type": "error"
    },
    {
      "inputs": [],
      "name": "TransferFailed",
      "type": "error"
    },
    {
      "inputs": [],
      "name": "ZeroAddress",
      "type": "error"
    },
    {
      "inputs": [],
      "name": "ZeroValue",
      "type": "error"
    },
    {
      "anonymous": false,
      "inputs": [
        {
          "indexed": true,
          "internalType": "address",
          "name": "buyer",
          "type": "address"
        },
        {
          "indexed": false,
          "internalType": "address",
          "name": "seller",
          "type": "address"
        },
        {
          "indexed": true,
          "internalType": "contract IERC721",
          "name": "nft",
          "type": "address"
        },
        {
          "indexed": true,
          "internalType": "uint256",
          "name": "tokenId",
          "type": "uint256"
        },
        {
          "indexed": false,
          "internalType": "uint256",
          "name": "price",
          "type": "uint256"
        }
      ],
      "name": "BoughtItem",
      "type": "event"
    },
    {
      "anonymous": false,
      "inputs": [
        {
          "indexed": true,
          "internalType": "address",
          "name": "owner",
          "type": "address"
        },
        {
          "indexed": true,
          "internalType": "uint256",
          "name": "amount",
          "type": "uint256"
        }
      ],
      "name": "ClaimedProceeds",
      "type": "event"
    },
    {
      "anonymous": false,
      "inputs": [
        {
          "indexed": true,
          "internalType": "address",
          "name": "owner",
          "type": "address"
        },
        {
          "indexed": true,
          "internalType": "contract IERC721",
          "name": "nft",
          "type": "address"
        },
        {
          "indexed": true,
          "internalType": "uint256",
          "name": "tokenId",
          "type": "uint256"
        },
        {
          "indexed": false,
          "internalType": "uint256",
          "name": "price",
          "type": "uint256"
        }
      ],
      "name": "ListedItem",
      "type": "event"
    },
    {
      "anonymous": false,
      "inputs": [
        {
          "indexed": true,
          "internalType": "address",
          "name": "owner",
          "type": "address"
        },
        {
          "indexed": true,
          "internalType": "contract IERC721",
          "name": "nft",
          "type": "address"
        },
        {
          "indexed": true,
          "internalType": "uint256",
          "name": "tokenId",
          "type": "uint256"
        },
        {
          "indexed": false,
          "internalType": "uint256",
          "name": "newPrice",
          "type": "uint256"
        }
      ],
      "name": "UpdatedItem",
      "type": "event"
    },
    {
      "anonymous": false,
      "inputs": [
        {
          "indexed": true,
          "internalType": "contract IERC721",
          "name": "nft",
          "type": "address"
        },
        {
          "indexed": true,
          "internalType": "uint256",
          "name": "tokenId",
          "type": "uint256"
        }
      ],
      "name": "WithdrawnItem",
      "type": "event"
    },
    {
      "inputs": [
        {
          "internalType": "contract IERC721",
          "name": "_nft",
          "type": "address"
        },
        {
          "internalType": "uint256",
          "name": "_tokenId",
          "type": "uint256"
        }
      ],
      "name": "buyItem",
      "outputs": [],
      "stateMutability": "payable",
      "type": "function"
    },
    {
      "inputs": [],
      "name": "claimProceeds",
      "outputs": [],
      "stateMutability": "nonpayable",
      "type": "function"
    },
    {
      "inputs": [
        {
          "internalType": "contract IERC721",
          "name": "_nft",
          "type": "address"
        },
        {
          "internalType": "uint256",
          "name": "_tokenId",
          "type": "uint256"
        }
      ],
      "name": "getListing",
      "outputs": [
        {
          "components": [
            {
              "internalType": "address",
              "name": "owner",
              "type": "address"
            },
            {
              "internalType": "uint256",
              "name": "price",
              "type": "uint256"
            }
          ],
          "internalType": "struct IMarket.Listing",
          "name": "",
          "type": "tuple"
        }
      ],
      "stateMutability": "view",
      "type": "function"
    },
    {
      "inputs": [
        {
          "internalType": "address",
          "name": "_seller",
          "type": "address"
        }
      ],
      "name": "getOwedProceeds",
      "outputs": [
        {
          "internalType": "uint256",
          "name": "",
          "type": "uint256"
        }
      ],
      "stateMutability": "view",
      "type": "function"
    },
    {
      "inputs": [
        {
          "internalType": "contract IERC721",
          "name": "_nft",
          "type": "address"
        },
        {
          "internalType": "uint256",
          "name": "_tokenId",
          "type": "uint256"
        },
        {
          "internalType": "uint256",
          "name": "_price",
          "type": "uint256"
        }
      ],
      "name": "listItem",
      "outputs": [],
      "stateMutability": "nonpayable",
      "type": "function"
    },
    {
      "inputs": [
        {
          "internalType": "contract IERC721",
          "name": "_nft",
          "type": "address"
        },
        {
          "internalType": "uint256",
          "name": "_tokenId",
          "type": "uint256"
        },
        {
          "internalType": "uint256",
          "name": "_newPrice",
          "type": "uint256"
        }
      ],
      "name": "updateItem",
      "outputs": [],
      "stateMutability": "nonpayable",
      "type": "function"
    },
    {
      "inputs": [
        {
          "internalType": "contract IERC721",
          "name": "_nft",
          "type": "address"
        },
        {
          "internalType": "uint256",
          "name": "_tokenId",
          "type": "uint256"
        }
      ],
      "name": "withdrawItem",
      "outputs": [],
      "stateMutability": "nonpayable",
      "type": "function"
    }
  ],
  "transactionHash": "0xbc80732963cecce91c3d706cc4bc5cfc5fdc34d8ddc3d7de7acf1064a0d017f2",
  "args": [],
  "numDeployments": 1,
  "solcInputHash": "03e5feb8ca83b766ef4c3d0be9308340",
  "bytecode": "0x608060405234801561001057600080fd5b5060016000819055506117bf806100286000396000f3fe6080604052600436106100705760003560e01c806388700d1c1161004e57806388700d1c1461010457806389bfd38f146101415780638c3b0ca81461016a5780639f37092a1461018157610070565b80632750490f146100755780633e9f9664146100b2578063781c1f1d146100db575b600080fd5b34801561008157600080fd5b5061009c600480360381019061009791906113bb565b61019d565b6040516100a99190611609565b60405180910390f35b3480156100be57600080fd5b506100d960048036038101906100d49190611415565b6101e6565b005b3480156100e757600080fd5b5061010260048036038101906100fd9190611455565b6104b8565b005b34801561011057600080fd5b5061012b60048036038101906101269190611415565b610783565b60405161013891906115ee565b60405180910390f35b34801561014d57600080fd5b5061016860048036038101906101639190611455565b61084e565b005b34801561017657600080fd5b5061017f610ccb565b005b61019b60048036038101906101969190611415565b610f0a565b005b6000600260008373ffffffffffffffffffffffffffffffffffffffff1673ffffffffffffffffffffffffffffffffffffffff168152602001908152602001600020549050919050565b81600073ffffffffffffffffffffffffffffffffffffffff168173ffffffffffffffffffffffffffffffffffffffff16141561024e576040517fd92e233d00000000000000000000000000000000000000000000000000000000815260040160405180910390fd5b8282338073ffffffffffffffffffffffffffffffffffffffff168373ffffffffffffffffffffffffffffffffffffffff16636352211e846040518263ffffffff1660e01b81526004016102a19190611609565b60206040518083038186803b1580156102b957600080fd5b505afa1580156102cd573d6000803e3d6000fd5b505050506040513d601f19601f820116820180604052508101906102f191906113e8565b73ffffffffffffffffffffffffffffffffffffffff161461034b5782826040517f6f7f64bf0000000000000000000000000000000000000000000000000000000081526004016103429291906115a5565b60405180910390fd5b85856000600160008473ffffffffffffffffffffffffffffffffffffffff1673ffffffffffffffffffffffffffffffffffffffff16815260200190815260200160002060008381526020019081526020016000206001015414156103e85781816040517f6831488c0000000000000000000000000000000000000000000000000000000081526004016103df9291906115a5565b60405180910390fd5b600160008973ffffffffffffffffffffffffffffffffffffffff1673ffffffffffffffffffffffffffffffffffffffff1681526020019081526020016000206000888152602001908152602001600020600080820160006101000a81549073ffffffffffffffffffffffffffffffffffffffff021916905560018201600090555050868873ffffffffffffffffffffffffffffffffffffffff167fd1fdafb3dffcabafd9fb092a53ceec19d0c361274f89aacaa17557fbc25dfa0260405160405180910390a35050505050505050565b82600073ffffffffffffffffffffffffffffffffffffffff168173ffffffffffffffffffffffffffffffffffffffff161415610520576040517fd92e233d00000000000000000000000000000000000000000000000000000000815260040160405180910390fd5b8383338073ffffffffffffffffffffffffffffffffffffffff168373ffffffffffffffffffffffffffffffffffffffff16636352211e846040518263ffffffff1660e01b81526004016105739190611609565b60206040518083038186803b15801561058b57600080fd5b505afa15801561059f573d6000803e3d6000fd5b505050506040513d601f19601f820116820180604052508101906105c391906113e8565b73ffffffffffffffffffffffffffffffffffffffff161461061d5782826040517f6f7f64bf0000000000000000000000000000000000000000000000000000000081526004016106149291906115a5565b60405180910390fd5b86866000600160008473ffffffffffffffffffffffffffffffffffffffff1673ffffffffffffffffffffffffffffffffffffffff16815260200190815260200160002060008381526020019081526020016000206001015414156106ba5781816040517f6831488c0000000000000000000000000000000000000000000000000000000081526004016106b19291906115a5565b60405180910390fd5b86600160008b73ffffffffffffffffffffffffffffffffffffffff1673ffffffffffffffffffffffffffffffffffffffff16815260200190815260200160002060008a815260200190815260200160002060010181905550878973ffffffffffffffffffffffffffffffffffffffff163373ffffffffffffffffffffffffffffffffffffffff167fbf82d3911f5c24eb518c200558e7301039d63a6fbea04a7d21ecfa9fc905bab28a6040516107709190611609565b60405180910390a4505050505050505050565b61078b611337565b600160008473ffffffffffffffffffffffffffffffffffffffff1673ffffffffffffffffffffffffffffffffffffffff16815260200190815260200160002060008381526020019081526020016000206040518060400160405290816000820160009054906101000a900473ffffffffffffffffffffffffffffffffffffffff1673ffffffffffffffffffffffffffffffffffffffff1673ffffffffffffffffffffffffffffffffffffffff168152602001600182015481525050905092915050565b82600073ffffffffffffffffffffffffffffffffffffffff168173ffffffffffffffffffffffffffffffffffffffff1614156108b6576040517fd92e233d00000000000000000000000000000000000000000000000000000000815260040160405180910390fd5b8160008114156108f2576040517f7c946ed700000000000000000000000000000000000000000000000000000000815260040160405180910390fd5b84843073ffffffffffffffffffffffffffffffffffffffff168273ffffffffffffffffffffffffffffffffffffffff1663081812fc836040518263ffffffff1660e01b81526004016109449190611609565b60206040518083038186803b15801561095c57600080fd5b505afa158015610970573d6000803e3d6000fd5b505050506040513d601f19601f8201168201806040525081019061099491906113e8565b73ffffffffffffffffffffffffffffffffffffffff16146109ee5781816040517fce99e4c20000000000000000000000000000000000000000000000000000000081526004016109e59291906115a5565b60405180910390fd5b86866000600160008473ffffffffffffffffffffffffffffffffffffffff1673ffffffffffffffffffffffffffffffffffffffff1681526020019081526020016000206000838152602001908152602001600020600101541115610a8b5781816040517f4a5568d5000000000000000000000000000000000000000000000000000000008152600401610a829291906115a5565b60405180910390fd5b8888338073ffffffffffffffffffffffffffffffffffffffff168373ffffffffffffffffffffffffffffffffffffffff16636352211e846040518263ffffffff1660e01b8152600401610ade9190611609565b60206040518083038186803b158015610af657600080fd5b505afa158015610b0a573d6000803e3d6000fd5b505050506040513d601f19601f82011682018060405250810190610b2e91906113e8565b73ffffffffffffffffffffffffffffffffffffffff1614610b885782826040517f6f7f64bf000000000000000000000000000000000000000000000000000000008152600401610b7f9291906115a5565b60405180910390fd5b60405180604001604052803373ffffffffffffffffffffffffffffffffffffffff1681526020018b815250600160008e73ffffffffffffffffffffffffffffffffffffffff1673ffffffffffffffffffffffffffffffffffffffff16815260200190815260200160002060008d815260200190815260200160002060008201518160000160006101000a81548173ffffffffffffffffffffffffffffffffffffffff021916908373ffffffffffffffffffffffffffffffffffffffff160217905550602082015181600101559050508a8c73ffffffffffffffffffffffffffffffffffffffff163373ffffffffffffffffffffffffffffffffffffffff167f6dccb207175f77bdf842a7d6ffa4e1a9e5c31ef06061544cfa1fbe5b387942688d604051610cb59190611609565b60405180910390a4505050505050505050505050565b60026000541415610d11576040517f08c379a0000000000000000000000000000000000000000000000000000000008152600401610d08906115ce565b60405180910390fd5b60026000819055506000600260003373ffffffffffffffffffffffffffffffffffffffff1673ffffffffffffffffffffffffffffffffffffffff1681526020019081526020016000205490506000811415610d98576040517f8135b9c200000000000000000000000000000000000000000000000000000000815260040160405180910390fd5b80471015610dd2576040517fad3a8b9e00000000000000000000000000000000000000000000000000000000815260040160405180910390fd5b6000600260003373ffffffffffffffffffffffffffffffffffffffff1673ffffffffffffffffffffffffffffffffffffffff1681526020019081526020016000208190555060003373ffffffffffffffffffffffffffffffffffffffff1682604051610e3d90611559565b60006040518083038185875af1925050503d8060008114610e7a576040519150601f19603f3d011682016040523d82523d6000602084013e610e7f565b606091505b5050905080610eba576040517f90b8ec1800000000000000000000000000000000000000000000000000000000815260040160405180910390fd5b813373ffffffffffffffffffffffffffffffffffffffff167faaef5ca4dc9db621436afcecefb8acaa41620521e90fe907ef8499414215432e60405160405180910390a350506001600081905550565b60026000541415610f50576040517f08c379a0000000000000000000000000000000000000000000000000000000008152600401610f47906115ce565b60405180910390fd5b600260008190555081600073ffffffffffffffffffffffffffffffffffffffff168173ffffffffffffffffffffffffffffffffffffffff161415610fc0576040517fd92e233d00000000000000000000000000000000000000000000000000000000815260040160405180910390fd5b82826000600160008473ffffffffffffffffffffffffffffffffffffffff1673ffffffffffffffffffffffffffffffffffffffff168152602001908152602001600020600083815260200190815260200160002060010154141561105d5781816040517f6831488c0000000000000000000000000000000000000000000000000000000081526004016110549291906115a5565b60405180910390fd5b6000600160008773ffffffffffffffffffffffffffffffffffffffff1673ffffffffffffffffffffffffffffffffffffffff16815260200190815260200160002060008681526020019081526020016000206040518060400160405290816000820160009054906101000a900473ffffffffffffffffffffffffffffffffffffffff1673ffffffffffffffffffffffffffffffffffffffff1673ffffffffffffffffffffffffffffffffffffffff16815260200160018201548152505090508060200151341461116457346040517f1066592000000000000000000000000000000000000000000000000000000000815260040161115b9190611609565b60405180910390fd5b600160008773ffffffffffffffffffffffffffffffffffffffff1673ffffffffffffffffffffffffffffffffffffffff1681526020019081526020016000206000868152602001908152602001600020600080820160006101000a81549073ffffffffffffffffffffffffffffffffffffffff0219169055600182016000905550508573ffffffffffffffffffffffffffffffffffffffff166342842e0e826000015133886040518463ffffffff1660e01b81526004016112279392919061156e565b600060405180830381600087803b15801561124157600080fd5b505af1158015611255573d6000803e3d6000fd5b50505050806020015160026000836000015173ffffffffffffffffffffffffffffffffffffffff1673ffffffffffffffffffffffffffffffffffffffff16815260200190815260200160002060008282546112b09190611640565b92505081905550848673ffffffffffffffffffffffffffffffffffffffff163373ffffffffffffffffffffffffffffffffffffffff167f9c26116e2cc1f65f0e6e2861346f6401a4814a4bd67f5856c973f3118f4671638460000151856020015160405161131f9291906115a5565b60405180910390a45050505060016000819055505050565b6040518060400160405280600073ffffffffffffffffffffffffffffffffffffffff168152602001600081525090565b60008135905061137681611744565b92915050565b60008151905061138b81611744565b92915050565b6000813590506113a08161175b565b92915050565b6000813590506113b581611772565b92915050565b6000602082840312156113d1576113d0611713565b5b60006113df84828501611367565b91505092915050565b6000602082840312156113fe576113fd611713565b5b600061140c8482850161137c565b91505092915050565b6000806040838503121561142c5761142b611713565b5b600061143a85828601611391565b925050602061144b858286016113a6565b9150509250929050565b60008060006060848603121561146e5761146d611713565b5b600061147c86828701611391565b935050602061148d868287016113a6565b925050604061149e868287016113a6565b9150509250925092565b6114b181611696565b82525050565b6114c081611696565b82525050565b60006114d3600083611624565b91506114de82611718565b600082019050919050565b60006114f6601f8361162f565b91506115018261171b565b602082019050919050565b60408201600082015161152260008501826114a8565b506020820151611535602085018261153b565b50505050565b611544816116da565b82525050565b611553816116da565b82525050565b6000611564826114c6565b9150819050919050565b600060608201905061158360008301866114b7565b61159060208301856114b7565b61159d604083018461154a565b949350505050565b60006040820190506115ba60008301856114b7565b6115c7602083018461154a565b9392505050565b600060208201905081810360008301526115e7816114e9565b9050919050565b6000604082019050611603600083018461150c565b92915050565b600060208201905061161e600083018461154a565b92915050565b600081905092915050565b600082825260208201905092915050565b600061164b826116da565b9150611656836116da565b9250827fffffffffffffffffffffffffffffffffffffffffffffffffffffffffffffffff0382111561168b5761168a6116e4565b5b828201905092915050565b60006116a1826116ba565b9050919050565b60006116b382611696565b9050919050565b600073ffffffffffffffffffffffffffffffffffffffff82169050919050565b6000819050919050565b7f4e487b7100000000000000000000000000000000000000000000000000000000600052601160045260246000fd5b600080fd5b50565b7f5265656e7472616e637947756172643a207265656e7472616e742063616c6c00600082015250565b61174d81611696565b811461175857600080fd5b50565b611764816116a8565b811461176f57600080fd5b50565b61177b816116da565b811461178657600080fd5b5056fea2646970667358221220a7c543a82f7dcbd99d5f640e84221f365c7187db1b0f44d166c19e54fe989a3064736f6c63430008070033",
  "devdoc": {
    "kind": "dev",
    "methods": {
      "buyItem(address,uint256)": {
        "details": "The buyer is charged the price of the item.",
        "params": {
          "nft": "Address of the NFT contract.",
          "tokenId": "NFT token ID."
        }
      },
      "listItem(address,uint256,uint256)": {
        "details": "The submitted NFT is approved for the contract to transfer it when the listing is confirmed.",
        "params": {
          "nft": "Address of the NFT contract.",
          "price": "Price of the item.",
          "tokenId": "NFT token ID."
        }
      },
      "updateItem(address,uint256,uint256)": {
        "params": {
          "newPrice": "New price of the item.",
          "nft": "Address of the NFT contract.",
          "tokenId": "NFT token ID."
        }
      },
      "withdrawItem(address,uint256)": {
        "params": {
          "nft": "Address of the NFT contract.",
          "tokenId": "NFT token ID."
        }
      }
    },
    "stateVariables": {
      "s_listings": {
        "details": "Listing information for each nft token NFT Address -> TokenId -> Listing"
      },
      "s_owedProceeds": {
        "details": "Store the cumulative amount of ETH owed to each seller Seller Address -> Amount of ETH owed"
      }
    },
    "version": 1
  },
  "userdoc": {
    "errors": {
      "NotEnoughBalance()": [
        {
          "notice": "Emitted when the address does not have enough balance"
        }
      ],
      "ZeroAddress()": [
        {
          "notice": "Emitted when the submitted address is the zero address"
        }
      ],
      "ZeroValue()": [
        {
          "notice": "Emitted when the submitted value is zero."
        }
      ]
    },
    "kind": "user",
    "methods": {
      "buyItem(address,uint256)": {
        "notice": "Buys a listed item on the marketplace."
      },
      "listItem(address,uint256,uint256)": {
        "notice": "Lists an item on the marketplace."
      },
      "withdrawItem(address,uint256)": {
        "notice": "Cancels a listing on the marketplace."
      }
    },
    "version": 1
  },
  "storageLayout": {
    "storage": [
      {
        "astId": 13,
        "contract": "contracts/Market.sol:Market",
        "label": "_status",
        "offset": 0,
        "slot": "0",
        "type": "t_uint256"
      },
      {
        "astId": 2335,
        "contract": "contracts/Market.sol:Market",
        "label": "s_listings",
        "offset": 0,
        "slot": "1",
        "type": "t_mapping(t_contract(IERC721)1713,t_mapping(t_uint256,t_struct(Listing)2862_storage))"
      },
      {
        "astId": 2340,
        "contract": "contracts/Market.sol:Market",
        "label": "s_owedProceeds",
        "offset": 0,
        "slot": "2",
        "type": "t_mapping(t_address,t_uint256)"
      }
    ],
    "types": {
      "t_address": {
        "encoding": "inplace",
        "label": "address",
        "numberOfBytes": "20"
      },
      "t_contract(IERC721)1713": {
        "encoding": "inplace",
        "label": "contract IERC721",
        "numberOfBytes": "20"
      },
      "t_mapping(t_address,t_uint256)": {
        "encoding": "mapping",
        "key": "t_address",
        "label": "mapping(address => uint256)",
        "numberOfBytes": "32",
        "value": "t_uint256"
      },
      "t_mapping(t_contract(IERC721)1713,t_mapping(t_uint256,t_struct(Listing)2862_storage))": {
        "encoding": "mapping",
        "key": "t_contract(IERC721)1713",
        "label": "mapping(contract IERC721 => mapping(uint256 => struct IMarket.Listing))",
        "numberOfBytes": "32",
        "value": "t_mapping(t_uint256,t_struct(Listing)2862_storage)"
      },
      "t_mapping(t_uint256,t_struct(Listing)2862_storage)": {
        "encoding": "mapping",
        "key": "t_uint256",
        "label": "mapping(uint256 => struct IMarket.Listing)",
        "numberOfBytes": "32",
        "value": "t_struct(Listing)2862_storage"
      },
      "t_struct(Listing)2862_storage": {
        "encoding": "inplace",
        "label": "struct IMarket.Listing",
        "members": [
          {
            "astId": 2859,
            "contract": "contracts/Market.sol:Market",
            "label": "owner",
            "offset": 0,
            "slot": "0",
            "type": "t_address"
          },
          {
            "astId": 2861,
            "contract": "contracts/Market.sol:Market",
            "label": "price",
            "offset": 0,
            "slot": "1",
            "type": "t_uint256"
          }
        ],
        "numberOfBytes": "64"
      },
      "t_uint256": {
        "encoding": "inplace",
        "label": "uint256",
        "numberOfBytes": "32"
      }
    }
  }
}